{
  "transactions": [
    {
      "hash": "0xcb2742ee7ea5d6ace8999eb5245ba757aa5b2bfd7f8633fd2173faf02e5b3185",
      "transactionType": "CALL",
      "contractName": "BasicNft",
      "contractAddress": "0xBcb3300D9a4fB01030E7e73752664388abC242ce",
      "function": "mintNft(string)",
      "arguments": [
        "\"ipfs://bafybeig37ioir76s7mg5oobetncojcm3c3hxasyd4rvid4jqhy4gkaheg4/?filename=0-PUG.json\""
      ],
      "transaction": {
        "type": "0x02",
        "from": "0xacbba58dcf3de45dd45d12ce258b43f2eb8a739e",
        "to": "0xbcb3300d9a4fb01030e7e73752664388abc242ce",
        "gas": "0x31d9d",
        "value": "0x0",
        "data": "0xda86f4a900000000000000000000000000000000000000000000000000000000000000200000000000000000000000000000000000000000000000000000000000000057697066733a2f2f62616679626569673337696f6972373673376d67356f6f6265746e636f6a636d3363336878617379643472766964346a71687934676b61686567342f3f66696c656e616d653d302d5055472e6a736f6e000000000000000000",
        "nonce": "0x26",
        "accessList": []
      },
      "additionalContracts": [],
      "isFixedGasLimit": false
    }
  ],
  "receipts": [
    {
      "transactionHash": "0xcb2742ee7ea5d6ace8999eb5245ba757aa5b2bfd7f8633fd2173faf02e5b3185",
      "transactionIndex": "0x25",
      "blockHash": "0xdd5be456d7b278eaca4fbd92380a90e75b5cafc1ef806cb03412b91e83aaf41a",
      "blockNumber": "0x4c0124",
      "from": "0xacBbA58dcf3dE45dD45D12cE258B43f2eb8A739E",
      "to": "0xBcb3300D9a4fB01030E7e73752664388abC242ce",
      "cumulativeGasUsed": "0x4943c6",
      "gasUsed": "0x24176",
      "contractAddress": null,
      "logs": [
        {
          "address": "0xBcb3300D9a4fB01030E7e73752664388abC242ce",
          "topics": [
            "0xddf252ad1be2c89b69c2b068fc378daa952ba7f163c4a11628f55a4df523b3ef",
            "0x0000000000000000000000000000000000000000000000000000000000000000",
            "0x000000000000000000000000acbba58dcf3de45dd45d12ce258b43f2eb8a739e",
            "0x000000000000000000000000000000000000000000000000000000000000000a"
          ],
          "data": "0x",
          "blockHash": "0xdd5be456d7b278eaca4fbd92380a90e75b5cafc1ef806cb03412b91e83aaf41a",
          "blockNumber": "0x4c0124",
          "transactionHash": "0xcb2742ee7ea5d6ace8999eb5245ba757aa5b2bfd7f8633fd2173faf02e5b3185",
          "transactionIndex": "0x25",
          "logIndex": "0x5d",
          "removed": false
        }
      ],
      "status": "0x1",
      "logsBloom": "0x00000000000000000000000000000000000000000000000000000000000000000000000000000000000000000000000000000000040000000020000000000000000000000000000000000008200000000000000000000000000000000000000000000000020000004000000000000800000000002000000000000010000000000000000000000000010000000000000000000000000000000000000000000000000000000000000000000000000000000000000000000000000000000000000000000002000000000000000000000000000000000000000000000800000020000000000000000200000000000000000000000000000000008000000000000000",
      "type": "0x2",
      "effectiveGasPrice": "0xd70a87218"
    }
  ],
  "libraries": [],
  "pending": [],
  "returns": {},
  "timestamp": 1703865024,
  "chain": 11155111,
  "multi": false,
  "commit": "1ab0647"
}