{
  "transactions": [
    {
      "hash": "0x01d47526cd2fa7f6eb931e436ec37fc11fa0183402292d1d2af450aad44877eb",
      "transactionType": "CALL",
      "contractName": "BasicNft",
      "contractAddress": "0xBcb3300D9a4fB01030E7e73752664388abC242ce",
      "function": "mintNft(string)",
      "arguments": [
        "\"ipfs://bafybeig37ioir76s7mg5oobetncojcm3c3hxasyd4rvid4jqhy4gkaheg4/?filename=0-PUG.json\""
      ],
      "transaction": {
        "type": "0x02",
        "from": "0xacbba58dcf3de45dd45d12ce258b43f2eb8a739e",
        "to": "0xbcb3300d9a4fb01030e7e73752664388abc242ce",
        "gas": "0x3d623",
        "value": "0x0",
        "data": "0xda86f4a900000000000000000000000000000000000000000000000000000000000000200000000000000000000000000000000000000000000000000000000000000057697066733a2f2f62616679626569673337696f6972373673376d67356f6f6265746e636f6a636d3363336878617379643472766964346a71687934676b61686567342f3f66696c656e616d653d302d5055472e6a736f6e000000000000000000",
        "nonce": "0x1c",
        "accessList": []
      },
      "additionalContracts": [],
      "isFixedGasLimit": false
    },
    {
      "hash": "0x19853bb1cade7e11cc2629b72ae3f970dde5b6990acfb804bb38901d5ce50c19",
      "transactionType": "CALL",
      "contractName": "BasicNft",
      "contractAddress": "0xBcb3300D9a4fB01030E7e73752664388abC242ce",
      "function": "mintNft(string)",
      "arguments": [
        "\"https://ipfs.io/ipns/k51qzi5uqu5dk2bqde7fgmi263t3qibkzen64vzzjg7zkcixpmshs9gafrro1t\""
      ],
      "transaction": {
        "type": "0x02",
        "from": "0xacbba58dcf3de45dd45d12ce258b43f2eb8a739e",
        "to": "0xbcb3300d9a4fb01030e7e73752664388abc242ce",
        "gas": "0x31d5b",
        "value": "0x0",
        "data": "0xda86f4a90000000000000000000000000000000000000000000000000000000000000020000000000000000000000000000000000000000000000000000000000000005368747470733a2f2f697066732e696f2f69706e732f6b3531717a693575717535646b32627164653766676d6932363374337169626b7a656e3634767a7a6a67377a6b636978706d7368733967616672726f317400000000000000000000000000",
        "nonce": "0x1d",
        "accessList": []
      },
      "additionalContracts": [],
      "isFixedGasLimit": false
    }
  ],
  "receipts": [],
  "libraries": [],
  "pending": [
    "0x01d47526cd2fa7f6eb931e436ec37fc11fa0183402292d1d2af450aad44877eb",
    "0x19853bb1cade7e11cc2629b72ae3f970dde5b6990acfb804bb38901d5ce50c19"
  ],
  "returns": {},
  "timestamp": 1703841857,
  "chain": 11155111,
  "multi": false,
  "commit": "524dd83"
}