{
  "transactions": [
    {
      "hash": "0x5922f3eb6f598278f25fbdf0cd89362b318cb9ef66f3a3353fddfef3c2addd85",
      "transactionType": "CALL",
      "contractName": "BasicNft",
      "contractAddress": "0xBcb3300D9a4fB01030E7e73752664388abC242ce",
      "function": "mintNft(string)",
      "arguments": [
        "\"ipfs://bafybeig37ioir76s7mg5oobetncojcm3c3hxasyd4rvid4jqhy4gkaheg4/?filename=0-PUG.json\""
      ],
      "transaction": {
        "type": "0x02",
        "from": "0xacbba58dcf3de45dd45d12ce258b43f2eb8a739e",
        "to": "0xbcb3300d9a4fb01030e7e73752664388abc242ce",
        "gas": "0x31d9d",
        "value": "0x0",
        "data": "0xda86f4a900000000000000000000000000000000000000000000000000000000000000200000000000000000000000000000000000000000000000000000000000000057697066733a2f2f62616679626569673337696f6972373673376d67356f6f6265746e636f6a636d3363336878617379643472766964346a71687934676b61686567342f3f66696c656e616d653d302d5055472e6a736f6e000000000000000000",
        "nonce": "0x22",
        "accessList": []
      },
      "additionalContracts": [],
      "isFixedGasLimit": false
    },
    {
      "hash": "0x03f970947383a9ae8ac3e0728a4a6237e822bfc178d9849ec279a3a4b875f852",
      "transactionType": "CALL",
      "contractName": "BasicNft",
      "contractAddress": "0xBcb3300D9a4fB01030E7e73752664388abC242ce",
      "function": "mintNft(string)",
      "arguments": [
        "\"https://ipfs.io/ipns/k51qzi5uqu5dk2bqde7fgmi263t3qibkzen64vzzjg7zkcixpmshs9gafrro1t\""
      ],
      "transaction": {
        "type": "0x02",
        "from": "0xacbba58dcf3de45dd45d12ce258b43f2eb8a739e",
        "to": "0xbcb3300d9a4fb01030e7e73752664388abc242ce",
        "gas": "0x31d5b",
        "value": "0x0",
        "data": "0xda86f4a90000000000000000000000000000000000000000000000000000000000000020000000000000000000000000000000000000000000000000000000000000005368747470733a2f2f697066732e696f2f69706e732f6b3531717a693575717535646b32627164653766676d6932363374337169626b7a656e3634767a7a6a67377a6b636978706d7368733967616672726f317400000000000000000000000000",
        "nonce": "0x23",
        "accessList": []
      },
      "additionalContracts": [],
      "isFixedGasLimit": false
    }
  ],
  "receipts": [
    {
      "transactionHash": "0x5922f3eb6f598278f25fbdf0cd89362b318cb9ef66f3a3353fddfef3c2addd85",
      "transactionIndex": "0x51",
      "blockHash": "0xb4bc29698b57474ca3a277831f80aa438a57db4b9c3ba822b8aa83e8fede37d8",
      "blockNumber": "0x4c00b1",
      "from": "0xacBbA58dcf3dE45dD45D12cE258B43f2eb8A739E",
      "to": "0xBcb3300D9a4fB01030E7e73752664388abC242ce",
      "cumulativeGasUsed": "0x94da41",
      "gasUsed": "0x24176",
      "contractAddress": null,
      "logs": [
        {
          "address": "0xBcb3300D9a4fB01030E7e73752664388abC242ce",
          "topics": [
            "0xddf252ad1be2c89b69c2b068fc378daa952ba7f163c4a11628f55a4df523b3ef",
            "0x0000000000000000000000000000000000000000000000000000000000000000",
            "0x000000000000000000000000acbba58dcf3de45dd45d12ce258b43f2eb8a739e",
            "0x0000000000000000000000000000000000000000000000000000000000000006"
          ],
          "data": "0x",
          "blockHash": "0xb4bc29698b57474ca3a277831f80aa438a57db4b9c3ba822b8aa83e8fede37d8",
          "blockNumber": "0x4c00b1",
          "transactionHash": "0x5922f3eb6f598278f25fbdf0cd89362b318cb9ef66f3a3353fddfef3c2addd85",
          "transactionIndex": "0x51",
          "logIndex": "0xcb",
          "removed": false
        }
      ],
      "status": "0x1",
      "logsBloom": "0x00000000000000000000000000000000000000000000000000000000000000000000000000000000000000000000000000000000000400000000000000000000000000000000000000000008200000000000000000000000000000000000000000000000020000004000000000000800000000002000000000000010000000000000000400000000000000000000000000000000000000000000000000000000000000000000000000000000000000000000000000000000000000080000000000000002000000000000000000000000000000000000000000000800000020000000000000000200000000000000000000000000000000008000000000000000",
      "type": "0x2",
      "effectiveGasPrice": "0x74c5ec007"
    },
    {
      "transactionHash": "0x03f970947383a9ae8ac3e0728a4a6237e822bfc178d9849ec279a3a4b875f852",
      "transactionIndex": "0x52",
      "blockHash": "0xb4bc29698b57474ca3a277831f80aa438a57db4b9c3ba822b8aa83e8fede37d8",
      "blockNumber": "0x4c00b1",
      "from": "0xacBbA58dcf3dE45dD45D12cE258B43f2eb8A739E",
      "to": "0xBcb3300D9a4fB01030E7e73752664388abC242ce",
      "cumulativeGasUsed": "0x971b87",
      "gasUsed": "0x24146",
      "contractAddress": null,
      "logs": [
        {
          "address": "0xBcb3300D9a4fB01030E7e73752664388abC242ce",
          "topics": [
            "0xddf252ad1be2c89b69c2b068fc378daa952ba7f163c4a11628f55a4df523b3ef",
            "0x0000000000000000000000000000000000000000000000000000000000000000",
            "0x000000000000000000000000acbba58dcf3de45dd45d12ce258b43f2eb8a739e",
            "0x0000000000000000000000000000000000000000000000000000000000000007"
          ],
          "data": "0x",
          "blockHash": "0xb4bc29698b57474ca3a277831f80aa438a57db4b9c3ba822b8aa83e8fede37d8",
          "blockNumber": "0x4c00b1",
          "transactionHash": "0x03f970947383a9ae8ac3e0728a4a6237e822bfc178d9849ec279a3a4b875f852",
          "transactionIndex": "0x52",
          "logIndex": "0xcc",
          "removed": false
        }
      ],
      "status": "0x1",
      "logsBloom": "0x00000000000000000000000000000000000000000000000000000000000000000000000000000000000000000000000000001000000000000000000000000000000020000000000000000008200000000000000000000000000000000000000000000000020000004000000000000800000000002000000000000010000000000000000000000000000000000000000000000000000000000000000000000000000000000000000000000000000000000000000000000000000000000000000000000002000000000000000000000000000000000000000000000900000020000000000000000200000000000000000000000000000000008000000000000000",
      "type": "0x2",
      "effectiveGasPrice": "0x74c5ec007"
    }
  ],
  "libraries": [],
  "pending": [],
  "returns": {},
  "timestamp": 1703863507,
  "chain": 11155111,
  "multi": false,
  "commit": "524dd83"
}