{
  "transactions": [
    {
      "hash": "0xfb89cc91bf3b4a72570f6b7df8f98c5b6de67c25194cabdd3f07753d0018fd5f",
      "transactionType": "CALL",
      "contractName": null,
      "contractAddress": "0x4d1750398FcB9594481dE319C43694dAfAC4B705",
      "function": "mintNft(string)",
      "arguments": [
        "\"ipfs://bafybeig37ioir76s7mg5oobetncojcm3c3hxasyd4rvid4jqhy4gkaheg4/?filename=0-PUG.json\""
      ],
      "transaction": {
        "type": "0x02",
        "from": "0xacbba58dcf3de45dd45d12ce258b43f2eb8a739e",
        "to": "0x4d1750398fcb9594481de319c43694dafac4b705",
        "gas": "0x3d623",
        "value": "0x0",
        "data": "0xda86f4a900000000000000000000000000000000000000000000000000000000000000200000000000000000000000000000000000000000000000000000000000000057697066733a2f2f62616679626569673337696f6972373673376d67356f6f6265746e636f6a636d3363336878617379643472766964346a71687934676b61686567342f3f66696c656e616d653d302d5055472e6a736f6e000000000000000000",
        "nonce": "0x19",
        "accessList": []
      },
      "additionalContracts": [],
      "isFixedGasLimit": false
    },
    {
      "hash": "0x02fda02785e7d03e95db91d59b7e2a80d9a50e09cd768db76e2642e34f879d98",
      "transactionType": "CALL",
      "contractName": null,
      "contractAddress": "0x4d1750398FcB9594481dE319C43694dAfAC4B705",
      "function": "mintNft(string)",
      "arguments": [
        "\"https://ipfs.io/ipns/k51qzi5uqu5dk2bqde7fgmi263t3qibkzen64vzzjg7zkcixpmshs9gafrro1t\""
      ],
      "transaction": {
        "type": "0x02",
        "from": "0xacbba58dcf3de45dd45d12ce258b43f2eb8a739e",
        "to": "0x4d1750398fcb9594481de319c43694dafac4b705",
        "gas": "0x31d5b",
        "value": "0x0",
        "data": "0xda86f4a90000000000000000000000000000000000000000000000000000000000000020000000000000000000000000000000000000000000000000000000000000005368747470733a2f2f697066732e696f2f69706e732f6b3531717a693575717535646b32627164653766676d6932363374337169626b7a656e3634767a7a6a67377a6b636978706d7368733967616672726f317400000000000000000000000000",
        "nonce": "0x1a",
        "accessList": []
      },
      "additionalContracts": [],
      "isFixedGasLimit": false
    }
  ],
  "receipts": [],
  "libraries": [],
  "pending": [
    "0xfb89cc91bf3b4a72570f6b7df8f98c5b6de67c25194cabdd3f07753d0018fd5f",
    "0x02fda02785e7d03e95db91d59b7e2a80d9a50e09cd768db76e2642e34f879d98"
  ],
  "returns": {},
  "timestamp": 1703840403,
  "chain": 11155111,
  "multi": false,
  "commit": "524dd83"
}