{
  "transactions": [
    {
      "hash": "0x20adf86ce34fd50e7188ebbb5d2945b018d889ff74fc8e2c180839f53b4eb109",
      "transactionType": "CALL",
      "contractName": "BasicNft",
      "contractAddress": "0xBcb3300D9a4fB01030E7e73752664388abC242ce",
      "function": "mintNft(string)",
      "arguments": [
        "\"ipfs://bafybeig37ioir76s7mg5oobetncojcm3c3hxasyd4rvid4jqhy4gkaheg4/?filename=0-PUG.json\""
      ],
      "transaction": {
        "type": "0x02",
        "from": "0xacbba58dcf3de45dd45d12ce258b43f2eb8a739e",
        "to": "0xbcb3300d9a4fb01030e7e73752664388abc242ce",
        "gas": "0x31d9d",
        "value": "0x0",
        "data": "0xda86f4a900000000000000000000000000000000000000000000000000000000000000200000000000000000000000000000000000000000000000000000000000000057697066733a2f2f62616679626569673337696f6972373673376d67356f6f6265746e636f6a636d3363336878617379643472766964346a71687934676b61686567342f3f66696c656e616d653d302d5055472e6a736f6e000000000000000000",
        "nonce": "0x24",
        "accessList": []
      },
      "additionalContracts": [],
      "isFixedGasLimit": false
    },
    {
      "hash": "0x32061bdb8bc9b807355518aa9e203c3cb573f642c74d4f74f5933950740b6868",
      "transactionType": "CALL",
      "contractName": "BasicNft",
      "contractAddress": "0xBcb3300D9a4fB01030E7e73752664388abC242ce",
      "function": "mintNft(string)",
      "arguments": [
        "\"ipfs://bafybeig37ioir76s7mg5oobetncojcm3c3hxasyd4rvid4jqhy4gkaheg4/?filename=0-PUG.json\""
      ],
      "transaction": {
        "type": "0x02",
        "from": "0xacbba58dcf3de45dd45d12ce258b43f2eb8a739e",
        "to": "0xbcb3300d9a4fb01030e7e73752664388abc242ce",
        "gas": "0x31d9d",
        "value": "0x0",
        "data": "0xda86f4a900000000000000000000000000000000000000000000000000000000000000200000000000000000000000000000000000000000000000000000000000000057697066733a2f2f62616679626569673337696f6972373673376d67356f6f6265746e636f6a636d3363336878617379643472766964346a71687934676b61686567342f3f66696c656e616d653d302d5055472e6a736f6e000000000000000000",
        "nonce": "0x25",
        "accessList": []
      },
      "additionalContracts": [],
      "isFixedGasLimit": false
    }
  ],
  "receipts": [
    {
      "transactionHash": "0x20adf86ce34fd50e7188ebbb5d2945b018d889ff74fc8e2c180839f53b4eb109",
      "transactionIndex": "0x21",
      "blockHash": "0xf15206619a61e0f038c065a2699b19424ebba60f934828e81f457e00d4163fd5",
      "blockNumber": "0x4c00df",
      "from": "0xacBbA58dcf3dE45dD45D12cE258B43f2eb8A739E",
      "to": "0xBcb3300D9a4fB01030E7e73752664388abC242ce",
      "cumulativeGasUsed": "0x146c5f",
      "gasUsed": "0x24176",
      "contractAddress": null,
      "logs": [
        {
          "address": "0xBcb3300D9a4fB01030E7e73752664388abC242ce",
          "topics": [
            "0xddf252ad1be2c89b69c2b068fc378daa952ba7f163c4a11628f55a4df523b3ef",
            "0x0000000000000000000000000000000000000000000000000000000000000000",
            "0x000000000000000000000000acbba58dcf3de45dd45d12ce258b43f2eb8a739e",
            "0x0000000000000000000000000000000000000000000000000000000000000008"
          ],
          "data": "0x",
          "blockHash": "0xf15206619a61e0f038c065a2699b19424ebba60f934828e81f457e00d4163fd5",
          "blockNumber": "0x4c00df",
          "transactionHash": "0x20adf86ce34fd50e7188ebbb5d2945b018d889ff74fc8e2c180839f53b4eb109",
          "transactionIndex": "0x21",
          "logIndex": "0x10",
          "removed": false
        }
      ],
      "status": "0x1",
      "logsBloom": "0x00000000000000000000000000000000000000000000000000000000000000000000000000000000000000000000000000000000000080000000000000000000000000000000000000000008200000000000000000000000000000000000000000000000020000004000000000000800000000002000000000000010000000000080000000000000000000000000000000000000000000000000000000000000000000000000000000000000000000000000000000000000000000000000000040000002000000000000000000000000000000000000000000000800000020000000000000000200000000000000000000000000000000008000000000000000",
      "type": "0x2",
      "effectiveGasPrice": "0x9511a89a7"
    },
    {
      "transactionHash": "0x32061bdb8bc9b807355518aa9e203c3cb573f642c74d4f74f5933950740b6868",
      "transactionIndex": "0x22",
      "blockHash": "0xf15206619a61e0f038c065a2699b19424ebba60f934828e81f457e00d4163fd5",
      "blockNumber": "0x4c00df",
      "from": "0xacBbA58dcf3dE45dD45D12cE258B43f2eb8A739E",
      "to": "0xBcb3300D9a4fB01030E7e73752664388abC242ce",
      "cumulativeGasUsed": "0x16add5",
      "gasUsed": "0x24176",
      "contractAddress": null,
      "logs": [
        {
          "address": "0xBcb3300D9a4fB01030E7e73752664388abC242ce",
          "topics": [
            "0xddf252ad1be2c89b69c2b068fc378daa952ba7f163c4a11628f55a4df523b3ef",
            "0x0000000000000000000000000000000000000000000000000000000000000000",
            "0x000000000000000000000000acbba58dcf3de45dd45d12ce258b43f2eb8a739e",
            "0x0000000000000000000000000000000000000000000000000000000000000009"
          ],
          "data": "0x",
          "blockHash": "0xf15206619a61e0f038c065a2699b19424ebba60f934828e81f457e00d4163fd5",
          "blockNumber": "0x4c00df",
          "transactionHash": "0x32061bdb8bc9b807355518aa9e203c3cb573f642c74d4f74f5933950740b6868",
          "transactionIndex": "0x22",
          "logIndex": "0x11",
          "removed": false
        }
      ],
      "status": "0x1",
      "logsBloom": "0x00000000000000000000000000000000000000000000000000000000000000000000000000000000000000000000000000000000000000000000000000200000000000000000000000000008200000000000000000000000000000000000000000000000020000004000000000000800000000002000000000000010000000000000000000000000000000000000000000001000000000000000000000000000000000000000000000000000000000000000000000000000000000000000000000000002000000000000000000000000000000000000000000000800000020000000000000000200000000000000000000000000000000008000000000800000",
      "type": "0x2",
      "effectiveGasPrice": "0x9511a89a7"
    }
  ],
  "libraries": [],
  "pending": [],
  "returns": {},
  "timestamp": 1703864127,
  "chain": 11155111,
  "multi": false,
  "commit": "1ab0647"
}