{
  "transactions": [
    {
      "hash": "0x01d47526cd2fa7f6eb931e436ec37fc11fa0183402292d1d2af450aad44877eb",
      "transactionType": "CALL",
      "contractName": "BasicNft",
      "contractAddress": "0xBcb3300D9a4fB01030E7e73752664388abC242ce",
      "function": "mintNft(string)",
      "arguments": [
        "\"ipfs://bafybeig37ioir76s7mg5oobetncojcm3c3hxasyd4rvid4jqhy4gkaheg4/?filename=0-PUG.json\""
      ],
      "transaction": {
        "type": "0x02",
        "from": "0xacbba58dcf3de45dd45d12ce258b43f2eb8a739e",
        "to": "0xbcb3300d9a4fb01030e7e73752664388abc242ce",
        "gas": "0x3d623",
        "value": "0x0",
        "data": "0xda86f4a900000000000000000000000000000000000000000000000000000000000000200000000000000000000000000000000000000000000000000000000000000057697066733a2f2f62616679626569673337696f6972373673376d67356f6f6265746e636f6a636d3363336878617379643472766964346a71687934676b61686567342f3f66696c656e616d653d302d5055472e6a736f6e000000000000000000",
        "nonce": "0x1c",
        "accessList": []
      },
      "additionalContracts": [],
      "isFixedGasLimit": false
    },
    {
      "hash": "0x19853bb1cade7e11cc2629b72ae3f970dde5b6990acfb804bb38901d5ce50c19",
      "transactionType": "CALL",
      "contractName": "BasicNft",
      "contractAddress": "0xBcb3300D9a4fB01030E7e73752664388abC242ce",
      "function": "mintNft(string)",
      "arguments": [
        "\"https://ipfs.io/ipns/k51qzi5uqu5dk2bqde7fgmi263t3qibkzen64vzzjg7zkcixpmshs9gafrro1t\""
      ],
      "transaction": {
        "type": "0x02",
        "from": "0xacbba58dcf3de45dd45d12ce258b43f2eb8a739e",
        "to": "0xbcb3300d9a4fb01030e7e73752664388abc242ce",
        "gas": "0x31d5b",
        "value": "0x0",
        "data": "0xda86f4a90000000000000000000000000000000000000000000000000000000000000020000000000000000000000000000000000000000000000000000000000000005368747470733a2f2f697066732e696f2f69706e732f6b3531717a693575717535646b32627164653766676d6932363374337169626b7a656e3634767a7a6a67377a6b636978706d7368733967616672726f317400000000000000000000000000",
        "nonce": "0x1d",
        "accessList": []
      },
      "additionalContracts": [],
      "isFixedGasLimit": false
    }
  ],
  "receipts": [
    {
      "transactionHash": "0x01d47526cd2fa7f6eb931e436ec37fc11fa0183402292d1d2af450aad44877eb",
      "transactionIndex": "0x2b",
      "blockHash": "0x4642a8a757de352d29c465de10f86538ba275f00e725e023e0c42db713cf47fc",
      "blockNumber": "0x4bfa3c",
      "from": "0xacBbA58dcf3dE45dD45D12cE258B43f2eb8A739E",
      "to": "0xBcb3300D9a4fB01030E7e73752664388abC242ce",
      "cumulativeGasUsed": "0x450de4",
      "gasUsed": "0x2c70e",
      "contractAddress": null,
      "logs": [
        {
          "address": "0xBcb3300D9a4fB01030E7e73752664388abC242ce",
          "topics": [
            "0xddf252ad1be2c89b69c2b068fc378daa952ba7f163c4a11628f55a4df523b3ef",
            "0x0000000000000000000000000000000000000000000000000000000000000000",
            "0x000000000000000000000000acbba58dcf3de45dd45d12ce258b43f2eb8a739e",
            "0x0000000000000000000000000000000000000000000000000000000000000000"
          ],
          "data": "0x",
          "blockHash": "0x4642a8a757de352d29c465de10f86538ba275f00e725e023e0c42db713cf47fc",
          "blockNumber": "0x4bfa3c",
          "transactionHash": "0x01d47526cd2fa7f6eb931e436ec37fc11fa0183402292d1d2af450aad44877eb",
          "transactionIndex": "0x2b",
          "logIndex": "0x4b",
          "removed": false
        }
      ],
      "status": "0x1",
      "logsBloom": "0x00000000000000000000000000000000000000000000000000000000000000000000000000000000000000000000000000000000000000000000000000000000000000000000000000000008200000000000000000000000000000000000000000000000020000004000000000000800000000002000000000000010000000000000000000000000000000000000000000000000000000000000000000000000000000000000000000000000000000000000000000000000000000000000000000000002000000000000000000000000000000000000000000000800000020000000000000000200000000000000000000000000000000008000000000000000",
      "type": "0x2",
      "effectiveGasPrice": "0x19058fe247"
    },
    {
      "transactionHash": "0x19853bb1cade7e11cc2629b72ae3f970dde5b6990acfb804bb38901d5ce50c19",
      "transactionIndex": "0x2c",
      "blockHash": "0x4642a8a757de352d29c465de10f86538ba275f00e725e023e0c42db713cf47fc",
      "blockNumber": "0x4bfa3c",
      "from": "0xacBbA58dcf3dE45dD45D12cE258B43f2eb8A739E",
      "to": "0xBcb3300D9a4fB01030E7e73752664388abC242ce",
      "cumulativeGasUsed": "0x474f2a",
      "gasUsed": "0x24146",
      "contractAddress": null,
      "logs": [
        {
          "address": "0xBcb3300D9a4fB01030E7e73752664388abC242ce",
          "topics": [
            "0xddf252ad1be2c89b69c2b068fc378daa952ba7f163c4a11628f55a4df523b3ef",
            "0x0000000000000000000000000000000000000000000000000000000000000000",
            "0x000000000000000000000000acbba58dcf3de45dd45d12ce258b43f2eb8a739e",
            "0x0000000000000000000000000000000000000000000000000000000000000001"
          ],
          "data": "0x",
          "blockHash": "0x4642a8a757de352d29c465de10f86538ba275f00e725e023e0c42db713cf47fc",
          "blockNumber": "0x4bfa3c",
          "transactionHash": "0x19853bb1cade7e11cc2629b72ae3f970dde5b6990acfb804bb38901d5ce50c19",
          "transactionIndex": "0x2c",
          "logIndex": "0x4c",
          "removed": false
        }
      ],
      "status": "0x1",
      "logsBloom": "0x00000000000000000000000000000000000000000000000000000000000000000000000000000000000000000000000000000000000000000000000000040000000000000000000000000008200000000000000000040000000000000000000000000000020000004000000000000800000000002000000000000010000000000000000000000000000000000000000000000000000000000000000000000000000000000000000000000000000000000000000000000000000000000000000000000002000000000000000000000000000000000000000000000800000060000000000000000200000000000000000000000000000000008000000000000000",
      "type": "0x2",
      "effectiveGasPrice": "0x19058fe247"
    }
  ],
  "libraries": [],
  "pending": [],
  "returns": {},
  "timestamp": 1703841876,
  "chain": 11155111,
  "multi": false,
  "commit": "524dd83"
}